:020000040800F2
:10000000882F0020B102000857260008D5250008D7
:1000100055260008D50600084540000800000000ED
:10002000000000000000000000000000672600083B
:100030004D07000800000000652600086D26000836
:10004000CB020008CB020008CB020008CB0200085C
:10005000CB020008CB020008CB020008CB0200084C
:10006000CB020008CB020008CB020008CB0200083C
:10007000CB020008CB020008CB020008CB0200082C
:10008000CB020008CB020008CB020008CB0200081C
:10009000CB020008CB020008CB020008CB0200080C
:1000A000CB02000865270008CB020008CB0200083D
:1000B0008D270008CB020008CB020008CB02000805
:1000C000CB020008CB020008CB020008CB020008DC
:1000D000CB020008CB020008CB020008CB020008CC
:1000E000CB020008CB020008CB020008CB020008BC
:1000F000CB020008CB020008CB020008CB020008AC
:10010000CB020008CB020008CB020008CB0200089B
:10011000CB020008CB020008CB020008CB0200088B
:10012000CB020008CB020008CB020008CB0200087B
:10013000CB020008CB020008CB020008CB0200086B
:10014000CB020008CB020008CB02000859260008A9
:10015000CB020008CB020008CB020008CB0200084B
:10016000CB020008CB020008CB020008CB0200083B
:10017000CB020008CB020008CB0200080000000000
:10018000CB020008CB020008CB020008CB0200081B
:10019000CB020008CB020008CB020008CB0200080B
:1001A000CB020008CB020008CB020008CB020008FB
:1001B000CB020008CB020008CB020008CB020008EB
:1001C000CB020008CB02000800F002F800F060F853
:1001D0000AA090E8000C82448344AAF10107DA45A2
:1001E00001D100F055F8AFF2090EBAE80F0013F094
:1001F000010F18BFFB1A43F0010318474C410000E0
:100200006C4100000A444FF0000C10F8013B13F061
:10021000070408BF10F8014B1D1108BF10F8015B5F
:10022000641E05D010F8016B641E01F8016BF9D152
:1002300013F0080F1EBF10F8014BAD1C0C1B09D1A9
:100240006D1E58BF01F801CBFAD505E014F8016B1B
:1002500001F8016B6D1EF9D59142D6D370470000AD
:100260000023002400250026103A28BF78C1FBD8BF
:10027000520728BF30C148BF0B6070471FB504F05C
:100280004DF89DE8030000F047F91FBD10B510BD03
:1002900000F09EF91146FFF7F1FF03F0F3FE00F0C6
:1002A000BCF903B4FFF7F2FF03BC00F0EDF9000066
:1002B0000948804709480047FEE7FEE7FEE7FEE7FA
:1002C000FEE7FEE7FEE7FEE7FEE7FEE70448054936
:1002D000054A064B7047000019270008C9010008AD
:1002E000881B0020882F0020882B0020882B0020CE
:1002F00070B5064600F0F4F8056806F10B0020F032
:100300000704B4429CBF002070BD2B466A68BAB196
:100310001068A04210D304F1080188423CBF506825
:10032000586007D35168101941601168091B0160BA
:1003300058601460101D70BD13465268002AE7D142
:100340002146284600F0D4F80028DED170BD70B5F3
:100350000446051F00F0C4F80068002C14BF446870
:1003600070BD002C18BFAC423CBF20466468F8D377
:1003700001680A18AA4218BF456003D12A680546D9
:100380001144016028684119A1421CBF6C6070BD16
:100390006168696021680844286070BD53EA020CF6
:1003A00000F069802DE9F04B4FF00006002B1FBFD5
:1003B000B3FA83F503FA05F424FA05F65E4012BF9A
:1003C0001643B2FA82F502FA05F4C5F120051EBF04
:1003D00022FA05FC44EA0C04203556EA044C4FEAA4
:1003E000144418BF641C4FF000084FF000099042FD
:1003F00071EB030C39D3002919BFB1FA81F701FA67
:1004000007F6B0FA80F700FA07F6C7F120071EBF1B
:1004100020FA07FC46EA0C062037B6FBF4FCA7EBF3
:100420000507103F07F01F0BCBF120062CFA06F64C
:100430000CFA0BFB44BFB3460026202FA4BF5E4638
:100440004FF0000B5BEA060C08BF4FF0010B19EBF5
:100450000B0948EB0608ABFB027C06FB02CC0BFB4E
:1004600003CCC01B71EB0C01C1E70B4602464146B1
:100470004846BDE8F08B13B5084318BF4FF0FF3076
:100480000146AFF30080BDE81C4070474FF000020A
:1004900000B5134694469646203922BFA0E80C507A
:1004A000A0E80C50B1F12001BFF4F7AF090728BF55
:1004B000A0E80C5048BF0CC05DF804EB890028BFD1
:1004C00040F8042B08BF704748BF20F8022B11F0FA
:1004D000804F18BF00F8012B704770477047704776
:1004E0000048704798010020704770477047704778
:1004F00038B504460A4600206946AFF3008000285C
:1005000008BF38BD02460099204600F03FF80120A0
:1005100038BD012000F054B8F8B5AFF300800546AF
:1005200000200C46102000BF0646A819A0420DD995
:10053000324669460020AFF30080070008BF00F094
:100540003FF80098A04218BF0546C419FFF7C8FF3E
:1005500005600746F01D20F007004619284600F008
:100560000AF8B44208BFF8BDA21B31463868BDE89E
:10057000F84000F00BB800210160C0E9011070479D
:1005800010207047004870479001002003464068E3
:100590008C46002818BF88423CBF03464068F8D309
:1005A00018681844884207D00CF1030020F00700B7
:1005B000001D411A521A0146081D0A60FFF7C7BE06
:1005C00010B500F039F8BDE8104000F02FB87047C2
:1005D0007546FFF7D7FFAE4605006946534620F043
:1005E0000700854618B020B5FFF770FEBDE8204033
:1005F0004FF000064FF000074FF000084FF0000BDF
:10060000AC46ACE8C009ACE8C009ACE8C009ACE84D
:10061000C00921F007018D46704710B50446AFF3BD
:1006200000802046BDE81040FFF73BBE002801D007
:1006300000F02AB87047000010B5012805D000214D
:1006400003A000F027F8012010BD09A1F8E7000081
:1006500053494752544D454D3A204F7574206F66AB
:100660002068656170206D656D6F72790000000013
:100670003A2048656170206D656D6F727920636FF7
:10068000727275707465640001491820ABBEFEE794
:100690002600020070B505460C460A2000E06D1CDD
:1006A00000F011F835B128780028F8D102E0641C78
:1006B00000F009F814B120780028F8D1BDE87040A6
:1006C0000A20AFF3008008B569468DF800000320CA
:1006D000ABBE08BDFEE70020704700207047000059
:1006E00010B5194C05492046002202F0FDF90449D5
:1006F000204602F0F1F9002010BD00BF5C0C002084
:100700005C04002010B5104C0146204602F0E4F9CC
:10071000204602F0C5F9002010BD00BF0020704740
:1007200010B50A4601460848D0F8BC02D0F81402B9
:1007300008B1012010BD044C204602F0D5F9204636
:10074000BDE8104002F058BA6014002070477047AE
:10075000B0B5044600F0DEF8054689480078611C13
:1007600018BF044400F0D6F8401BA042FAD3B0BD35
:100770002DE9FC4F5E4A0A2490425E4A024408BFBB
:1007800009244FEAB2234FF0000B092B38BF4FEA80
:10079000B2244FF0010A4FF0000C00220094BCF18B
:1007A000200F00F0A3800AFA02F60B68334200F033
:1007B00097804F68122F1BD80AFA07F313F0061F11
:1007C00016D00323846803FA0CF3D1F80CE09C43A1
:1007D0000EFA0CF52C436FEA030E8460C7F3001485
:1007E00045689440B5434FEA42092C43446005E014
:1007F0000323E14603FA0CF36FEA030EC5688C6825
:1008000005EA0E0504FA09F42C43C46047F010040D
:10081000122C12D10BF01C040F2303FA04F56FF015
:10082000030303EA52070744D7F820800B6928EA3C
:100830000505A3402B433B624F68036807F00304A0
:1008400003EA0E0304FA09F423430360FB0047D5CF
:100850002B4B22F003051C461B6843F48043264FB4
:100860002360BE4623683D4403F480430F24019374
:100870000BF00C03019F9C40224FB846EF5927EA2A
:100880000404009F07FA03F3234345F80830DEF819
:1008900000304D6843EA0604EF0358BF23EA06041C
:1008A000CEF80040DEF80430AF0343EA060458BF38
:1008B00023EA0604CEF80440DEF80830EF0243EAEB
:1008C000060458BF23EA0604CEF808400B4BAD02DD
:1008D0001F461B6843EA060458BF23EA06043C602F
:1008E0000BF1040B0CF1020C013258E7BDE8FC8F50
:1008F000002402400000FEBF003C01400C3C0140CF
:100900004438024008FCFFFF002A08BF0904816147
:100910007047000005480068704700BF1848034949
:1009200000780A6810440860704700BF841B0020EC
:1009300080B5032000F06AF8002000F005F800F010
:1009400023F8002080BD000070B50D4E04463078BD
:100950004FF47A71B1FBF0F00A490968B1FBF0F08D
:1009600001F078FB01250F2C08D838B94FF0FF3083
:1009700021460022002500F02DF87460284670BD45
:10098000000000202800002082B00A48016841F0E1
:1009900080510160016801F0805101910199416825
:1009A00041F480414160406800F48040009000982C
:1009B00002B0704740380240002808D400F01F0100
:1009C000012202FA01F14009014A42F82010704761
:1009D00000E100E0B0B5134B4FF0FF351B68C3F3E7
:1009E0000223DC1E83F0070338BF0024042B28BF3A
:1009F000042305FA03F3994305FA04F3A1409A434B
:100A00001143BDE8B04003F01FBB00BF05494FF6DE
:100A1000FF030A681A4060F30A2203481043086083
:100A2000704700BF0CED00E00000FA0501688A691C
:100A300042F000628A610122C0F8FC23002280F8A3
:100A4000F423034A486D104348650020704700BFF7
:100A50000300001010B50446012916D039BB206AE6
:100A600030B101F005FE1248016821F00601016075
:100A70002068D0F8001E21F00101C0F8001ED4F853
:100A80000004BDE8104002F013BC2068D0F8001E3E
:100A900041F00101C0F8001ED4F8000402F074FC1B
:100AA000206A20B10248016841F00601016010BDD2
:100AB00010ED00E00068416200207047B0B50068AA
:100AC000436AB1B1846A013903EB14430024E5B2EF
:100AD000A94207D900EB85050134D5F8045103EB91
:100AE0001543F4E700EB810043EA0241C0F804112A
:100AF00002E043EA024181620020B0BDD0F8000468
:100B000002F036BBC1EBC10200EB8202D0F8000458
:100B1000926C02F0A1BAC1EBC10200EB8202D0F8E4
:100B20000004D2F8082202F0EBBAD0F8000402F078
:100B300023BB10B5044601F00F00090609D4C0EB31
:100B4000C001002204EB810181F8FD2101F5FE7155
:100B500007E0C0EBC001012204EB810181F83D20D8
:100B60003C31087094F8BC03012801D1022010BD6B
:100B7000012084F8BC03206802F09AFE002084F86B
:100B8000BC0310BDB0B5044601F00F00626890428E
:100B900001D9012524E0090609D4C0EBC0010022D7
:100BA00004EB810181F8FD2101F5FE7107E0C0EB46
:100BB000C001012204EB810181F83D203C31002578
:100BC00008708D7094F8BC03012801D1022507E05C
:100BD000012084F8BC03206803F034F884F8BC5387
:100BE0002846B0BD01F00F01C1EBC10100EB81004F
:100BF000D0F814027047B0B5044601F00F000906A2
:100C000009D4C0EBC001002504EB810181F8FD513E
:100C100001F5FE7107E0C0EBC001012504EB810185
:100C200081F83D503C318A60CB7008704A7802B13F
:100C3000C880022B01D10020087194F8BC03012860
:100C400001D10220B0BD012084F8BC03206802F06D
:100C500093FD002084F8BC03B0BDB0B501F00F04D3
:100C6000C4EBC40100EB81050021C5E98431C5F85E
:100C7000082285F8FD1105F5FE7185F8FC41036930
:100C8000012B01D1C5F80C220068DAB214B103F0CF
:100C90000FF801E002F038FF0020B0BDB0B5044607
:100CA00001F00F054068854201D90120B0BD08065A
:100CB00009D4C1EBC100002104EB800080F8FD11D4
:100CC00000F5FE7108E0C5EBC500012104EB8000D2
:100CD00080F83D1000F13C0101200D70887094F8FF
:100CE000BC23012A01D10220B0BD84F8BC032068D6
:100CF00002F0C1FF2DB9217C206804F5717202F069
:100D000075FF002084F8BC03B0BD70B501F00F047E
:100D10000026C4EBC40100EB8105294601F83C4FD5
:100D2000C1E905360123CA604B700369012B00D16C
:100D3000EA640068DAB214B102F0BAFF01E002F02E
:100D4000E3FE002070BD00002DE9F04F87B004687D
:100D50000646204603F08AF810B107B0BDE8F08FD0
:100D6000306803F0AFF80028F7D0306803F0AAF835
:100D700001463068890703D5416901F002014161EC
:100D800003F0A0F801463068C906069603943ED5E4
:100D9000816921F010018161246AC4F3434004F0A9
:100DA0000F0506281CD002282BD147F6F07004400E
:100DB00027D0C5EBC500220906EB80050398D5F8BE
:100DC000081203F083F8D5F80802D5F8141200EBE6
:100DD0001410C5F8080201EB1410C5F8140210E055
:100DE00006F571710398082203F070F8C5EBC50091
:100DF00006EB8000D0F81412C4F30A121144C0F8B4
:100E000014123068816941F010018161039C03F084
:100E100059F8000340F1BB80069C206803F031F8CC
:100E2000064604F5057A04F57170039C4FF000093D
:100E30004FF430680590002E00F0A980F00700F014
:100E40009E8006985FFA89FB0068594603F032F8E5
:100E50000746C0075AD004EB080001218160069CB8
:100E6000206808EB0001036C8A682469012C22D1F8
:100E700014072CD4940646D412F0280F039C45D1B5
:100E8000D24DAB4202D312F4004227D15AE90423D7
:100E9000B8F5306F13444AF80C3C09696FF3DF4131
:100EA000A2EB0101CAF8001028D10699D1F810125E
:100EB00021BB01211FE0C54CFF34A34212D1100415
:100EC000039C0BD4900619D52020886016E0BF48FB
:100ED000039C83421AD312F4004017D04FF4004011
:100EE000886013E0B8F5306F039C07D10699D1F8FC
:100EF000101219B90021059A02F078FE0698594699
:100F0000FFF709FE02E020208860039C380723D504
:100F100004EB0800082181600698016808EB0100D5
:100F20000C6C81680904A949A1F1010504D5AC4202
:100F300084BF4FF400418160069800F046FBAC424C
:100F4000039C09D906980069012805D1069801215A
:100F50000068059A02F04AFEF80603D504EB080083
:100F600010218160B80603D504EB080020218160C0
:100F7000B80404D504EB08004FF4005181600AF175
:100F80001C0A08F12008760809F1010953E7DDF889
:100F90001890D9F8000002F095FF400340F1B780A7
:100FA000D9F8000002F066FF064609F5717001905D
:100FB00004F5106000230490002E00F0A880F007D4
:100FC00000F0A280DFB2D9F800003946059302F0A4
:100FD0005FFF0546C00729D0059B012203F00F00E3
:100FE000D4F8341802FA00F021EA0000C4F83408FA
:100FF000049800EB43108260D9F81000012811D149
:10100000C3EBC30009EB8000D0E9111211448164E5
:1010100043B9D9F8500028B9D9F800000121019A44
:1010200002F0E4FD48463946FFF76CFD2807059BB2
:1010300004D50498082100EB43108160E80604D52C
:101040000498102100EB43108160680604D50498D1
:10105000402100EB43108160A80704D504980221C9
:1010600000EB4310816028064ED5C3EBC30009EBAB
:10107000800AD3465BF8500FD84658F8042F9042A8
:1010800042D3D9F80050841A5AF8441F02968C4271
:1010900088BF0C4605EB43110AF1040601F51069FF
:1010A00018E0069C3168247CDAF800300094841A39
:1010B0009C4288BF1C46A3B228463A4602F0B2FFC3
:1010C000306820443060D8F800000219C8F80020C9
:1010D000DBF80000D9F81830E11C9BB2B3EB910F9C
:1010E00028BF9042DDD8DDE90264DDE90539904290
:1010F0000AD803F00F00012101FA00F0D5F83418E6
:1011000021EA0000C5F834087608013354E7D9F81D
:10111000000002F0D7FE002802D4D9F800001AE03F
:10112000D4F8040820F00100C4F8040899F8F40386
:10113000012807D10020002189F8F4034846FFF771
:1011400089FC02E0484600F024FAD9F80000416921
:1011500001F00041416102F0B5FE000502D4D9F86A
:1011600000000CE0D4F80808C00702D0484600F0A0
:1011700049FAD9F80000416901F40061416102F0C7
:10118000A1FE000118D5D9F80000416901F0006105
:10119000416199F8F41319B1484600F033FA0BE0B5
:1011A000012189F8F4130121406DC0F38300C9F8CF
:1011B000F8034846FFF74EFCD9F8000002F082FE23
:1011C000C00405D4D9F800005DE000BF0B30544FD7
:1011D000D4F80408102120F00100C4F80408D9F85C
:1011E000000002F025FE04F5106104F50060D9F856
:1011F00004204FF67F33CAB18B60013A0C6824F4A7
:1012000000140C600C6844F000640C60C1F80832F3
:10121000D1F8004224F40014C1F80042D1F8004291
:1012200044F00064C1F800422031E4E7C16941F0B4
:101230000111C161D9F8301041B1D0F8841041F0EA
:101240000B01C0F8841000F1440106E0416942F24C
:101250002B021143416100F110010A6842F00B02B8
:101260000A6009F57172016821F4FE61016099F864
:101270001010D9F8000002F0B9FCD9F8000041695B
:1012800001F48051416102F01DFE0146D9F80000D1
:1012900089041AD502F0AEFAD9F8000002F0D8FDA0
:1012A000C9F80C00D9F8005000F0FEFC99F80C20A9
:1012B0000146284602F03EFE484600F055F9D9F8AE
:1012C0000000416901F40051416102F0FBFD00079B
:1012D00002D4D9F8000008E0484600F05EF9D9F8D9
:1012E0000000416901F00801416102F0EBFDC0021C
:1012F00002D4D9F8000009E04846002100F03AF88D
:10130000D9F80000416901F48011416102F0DAFD71
:10131000800202D4D9F8000009E04846002100F01C
:101320002DF8D9F80000416901F40011416102F083
:10133000C9FD400002D4D9F8000008E04846FFF794
:10134000DDFBD9F80000416901F08041416102F004
:10135000B9FD40077FF501ADD9F800004468610789
:1013600004D54846FFF7E1FBD9F800004168214366
:101370004160F2E4D0F8000401F052BFD0F800045C
:1013800001F052BF2DE9F04F8BB0002800F08780AC
:101390000446056890F8BD0328B9002084F8BC0312
:1013A000204600F091F8032084F8BD03E86BC005E7
:1013B00001D400202061206802F0A0FB206804F125
:1013C000140E0A9004F1040BD4E90C509EE8C050AE
:1013D00004F1240A9BE80E089AE80007CDE90850BA
:1013E00002A8CDE900B680E8805005A880E8000793
:1013F0000A9802F00FFA00284ED12068002100253B
:1014000002F071FD616801200022D3B2994210D927
:10141000C3EBC30604EB8606A6F8423086F83C20F0
:10142000013286F83D003565C6E9115586F83F5012
:10143000EBE700200022D3B299420FD9C3EBC303DC
:1014400004EB8303C3F81002C3E9810083F8FF01B2
:1014500083F8FC21013283F8FD01ECE7A06804F178
:10146000140E0A9004F1240AD4E90C50D4E9033B89
:101470009EE8C05022689AE80007CDE9085002A80B
:10148000CDE900B680E8805005A880E80007104646
:101490000A9A02F071FA30B1022084F8BD030120EB
:1014A0000BB0BDE8F08F002084F83800012084F8EC
:1014B000BD03606A012802D12046FFF7B7FA206811
:1014C00002F04CFA0020EBE7F0B587B0044602A822
:1014D0001421FEF7DBFF2068B0F1A04F3DD1204E74
:1014E000002730681F4C40F0010002AD30602946F3
:1014F000306800F0010001900A200690032005905A
:101500000220049703904FF4E8500290019820467F
:10151000FFF72EF94FF400702946CDE903770290CA
:101520002046FFF725F97068002140F08000002276
:101530007060706800F0800001900198706940F45C
:1015400080407061706900F48040009000984320F2
:10155000FFF740FA4320FFF72FFA07B0F0BD00BFB6
:10156000303802400000024010B50446C06828B17F
:10157000022801D0FFF7EBF8012100E00021D4F8A8
:10158000000401F0ADFED4F80004BDE8104001F005
:1015900063BED0F8000401F08BBED0F8000401F067
:1015A00093BE10B5044690F8BC03012801D1022077
:1015B00010BD012084F8381084F8BC03206802F0C4
:1015C000A9FC002084F8BC0310BDD0F8002400F56D
:1015D0007171104601F094BE10B5044690F8BC033A
:1015E000012801D1022010BD012084F8BC0320682D
:1015F00002F00CFC206802F0A3F9002084F8BC0380
:1016000010BD000010B50446D0F8000401F0BCFE87
:101610002068D0F8001E41F00101C0F8001E206AC9
:1016200020B10348016841F00601016010BD00BF10
:1016300010ED00E0BCB51848D34D016841F0805171
:101640000160006800F0805001900198286840F423
:1016500080302860FFF75EF904466868C00306D44E
:10166000FFF758F9001BB0F57A7FF6D90FE028682C
:1016700040F400302860FFF74DF9044668688003A5
:1016800007D4FFF747F9001BB0F57A7FF6D903209E
:10169000BCBD0020BCBD00BF40380240BA48016854
:1016A00041F48071016070472DE9FC47D0F800A03B
:1016B00004465FEACA70B34E02D14FF000090BE056
:1016C000B06820F40000B060606BB1680143B0FA0C
:1016D00080F04FEA5019B1605FEA0A3002D44FF04F
:1016E000000811E0E06BD6F88C1021F44011B0F541
:1016F000801F41EA0001B0FA80F04FEA5018C6F8A6
:101700008C1008BF4FF001095FEACA2011D5206C88
:10171000D6F88C1021F44001002841EA0001C6F8F7
:101720008C1008BF4FF00108B0F5800F08BF4FF0D4
:1017300001095FEA8A60574653D5306C924F40F0FA
:1017400080503064306C00F080500190019838680F
:1017500040F480703860FFF7DDF805463868C00552
:1017600005D4FFF7D7F8401B6428F7D9F9E1306FAB
:1017700010F4407022D0216B01F4407188421DD0DA
:10178000306F316F41F4803120F440703167316F38
:1017900021F4803131673067306FC0070ED0FFF71A
:1017A000B9F8054641F28837306F800706D4FFF755
:1017B000B1F8411B0320B942F6D9D3E12768206B69
:1017C000B268724922F4F81200F440730140B3F594
:1017D000407F08BF0A43B2606FF31F30316F084388
:1017E0003067F8060BD5D6F88C0020F08070C6F86C
:1017F0008C00A06BD6F88C100843C6F88C007804D7
:1018000007D5606ED6F8901021F440310843C6F831
:101810009000380407D5A06ED6F8901021F440212E
:101820000843C6F89000F80307D5E06ED6F890108C
:1018300021F440110843C6F89000B80307D5206F83
:10184000D6F8901021F440010843C6F890007806BD
:1018500007D5606CD6F8901021F003010843C6F854
:101860009000380607D5A06CD6F8901021F00C0136
:101870000843C6F89000F80507D5E06CD6F890103C
:1018800021F030010843C6F89000B80507D5206D57
:10189000D6F8901021F0C0010843C6F890007805F2
:1018A00007D5606DD6F8901021F440710843C6F852
:1018B0009000380507D5A06DD6F8901021F440614E
:1018C0000843C6F89000F80407D5E06DD6F89010EC
:1018D00021F440510843C6F89000B80407D5206EA3
:1018E000D6F8901021F440410843C6F890007802E1
:1018F00007D5A06FD6F8901021F080610843C6F894
:101900009000B8020DD5E06FD6F8901021F000617C
:10191000B0F1006F41EA0001C6F8901008BF4FF027
:101920000108780307D5606FD6F8901021F0407158
:101930000843C6F89000380208D5D4F88000D6F8DD
:10194000901021F080510843C6F89000B9F1000FC3
:1019500002BF0AF0807007F0007110EB010000F088
:101960008380306820F080603060FEF7D3FF05464A
:10197000306800010CD5FEF7CDFF401B6428F7D975
:10198000EFE000BF0038024000700040FFFCFF0F96
:101990002068C10712D0616B81B9D6F88410D6F8DF
:1019A000842001F4403102F070621144D4E9012333
:1019B00041EA821141EA0371C6F88410010303D59C
:1019C000E16BB1F5801F05D0C1021DD5216CB1F5C9
:1019D000800F19D1D6F88410D6F8842001F4403154
:1019E00002F0E04211446268E36841EA821141EA90
:1019F0000361656AC6F88410691ED6F88C2022F04F
:101A00001F021143C6F88C10C10110D5D6F88410FE
:101A1000D6F8842001F0706102F0E042114462685F
:101A2000236941EA821141EA0341C6F8841080012A
:101A30000AD5231D0FCB1B0443EA801040EA026045
:101A400040EA0170C6F88400306840F08060306081
:101A5000FEF760FF05463068000105D4FEF75AFF27
:101A6000401B6428F7D97CE017F0080008BFB8F1E4
:101A7000000F79D0306820F080503060FEF74AFFC8
:101A800005463068800005D5FEF744FF401B6428FA
:101A9000F7D966E02068010301D5E16B19B1C102F5
:101AA0001ED5216CE1B9D6F88810D6F8882001F44B
:101AB000403102F0E0421144A56AD4E9052341EA2D
:101AC000821141EA0361C6F888106FF0FF01D6F871
:101AD0008C2001EB052122F4F8521143C6F88C103A
:101AE000810214D5E16FB1F1006F10D1D6F88810E2
:101AF000D6F8882001F0706102F0E042114462697A
:101B0000236A41EA821141EA0341C6F888100007BE
:101B100018D5D6F88800D6F8881000F0706001F467
:101B2000403108446169E26940EA811040EA02708C
:101B3000E36AC6F88800D6F88C0020F440301843D9
:101B4000C6F88C00306840F080503060FEF7E2FE4E
:101B500004463068800007D4FEF7DCFE001B6528D1
:101B6000F7D30320BDE8FC870020BDE8FC87000018
:101B70002DE9F041002800F08D80484F0446D7F849
:101B80000004884600F00F0088420DD2D7F8000408
:101B900020F00F0040EA0800C7F80004D7F800045E
:101BA00000F00F00404575D12068810711D541072D
:101BB00003D5B96841F4E051B960010703D5B968AC
:101BC00041F46041B960A168BA6822F0F0021143A3
:101BD000B960C00727D06068012803D1396889033C
:101BE00008D457E03968022802D1890102D451E0B3
:101BF00089074FD5B96821F003010843B860FEF7A3
:101C000089FE064641F288356068B96801F00C012A
:101C1000B1EB800F07D0FEF77DFE801BA842F3D901
:101C20000320BDE8F081D7F8000400F00F00404524
:101C30000DD9D7F8000420F00F0040EA0800C7F8DB
:101C40000004D7F8000400F00F00404522D12068BE
:101C5000410705D5E168BA6822F4E0521143B96042
:101C6000000706D52069B96821F4604141EAC00047
:101C7000B86000F01FF8B968094AC1F30311515C5C
:101C8000C8400B49086007480068FEF75DFE002069
:101C9000BDE8F0810120BDE8F08100BF00380240BE
:101CA000364300080400002001480068704700BF68
:101CB0002800002010B5134C606800F00C01124899
:101CC000082903D004291CD1104810BD21682368BD
:101CD00001F03F022168C1F388115B0205D4A1FB2A
:101CE00000010023FEF75AFB03E008484843B0FB1D
:101CF000F2F021680222C1F3014102EB4101B0FB85
:101D0000F1F010BD043802400024F40000127A0003
:101D10002DE9FC41002800F0D88004460078CB4E25
:101D2000C0074BD0B06800F00C00042806D1306822
:101D3000800343D56068002840D1C6E0B06800F059
:101D40000C00082802D170684002F0D4606868B1C5
:101D5000B0F5803F06D03168B0F5A02F1BD141F41B
:101D600080203060306840F480301AE0306820F421
:101D700080303060306820F480203060FEF7CAFD8B
:101D800005463068800319D5FEF7C4FD411B0320CA
:101D90006429F6D957E121F480303060306820F4AE
:101DA00080203060FEF7B6FD05463068800305D41C
:101DB000FEF7B0FD401B6428F7D915E120788007B5
:101DC0002DD5B06810F00C0F07D0B06800F00C00F3
:101DD000082809D17068400206D43068800717D5FA
:101DE000E068012814D070E03068E168002900F054
:101DF000BF8040F001003060FEF78CFD0546306882
:101E0000800705D4FEF786FD401B0228F7D9EBE0DA
:101E10002069316821F0F80141EAC0003060207883
:101E2000000720D5706F616971B140F001007067E3
:101E3000FEF770FD0546706F800714D4FEF76AFD4B
:101E4000401B0228F7D9CFE020F001007067FEF7B1
:101E500061FD0546706F800705D5FEF75BFD401BF1
:101E60000228F7D9C0E02078400731D4A769002FB5
:101E700000F0E880B06800F00C0008285BD17068C2
:101E8000012F22D0E16900F480028A421DD1216A2B
:101E900000F03F028A4218D147F6C071626A0140E1
:101EA000B1EB821F11D1A16A4FF6FF72C9039143B2
:101EB00000F44032A1F580318A4206D1E16A00F097
:101EC0007060B0EB016F00F0BD800120BDE8FC81C7
:101ED000306CC0000BD4306C4FF0010840F08050E3
:101EE0003064306C00F080500190019801E04FF0B8
:101EF0000008574F3868C0050FD4386840F4807028
:101F00003860FEF707FD05463868C00505D4FEF7C2
:101F100001FD401B6428F7D966E0A068C8B301281A
:101F200005D0316F05284BD141F004003067306F88
:101F300040F001004AE0306820F080703060FEF729
:101F4000E9FC0546022F09D13068800158D5FEF71B
:101F5000E1FC411B03200229F6D974E030688001BE
:101F600070D5FEF7D7FC411B03200229F6D96AE0A1
:101F700020F001003060FEF7CDFC05463068800798
:101F80007FF54DAFFEF7C6FC411B03200229F5D9B2
:101F900059E0306F20F001003067306F20F004000E
:101FA0003067FEF7B7FC054641F28837306F80078F
:101FB0001DD5FEF7AFFC411B0320B942F6D942E024
:101FC00021F001003067306F20F004003067FEF729
:101FD000A1FC054641F28837306F800707D4FEF731
:101FE00099FC401BB842F7D90320BDE8FC81B8F149
:101FF000000F3FF43BAF306C20F08050306435E789
:102000001C341FCC0843D90340EA82104FF6FF72FC
:10201000914340EA0460A1F58031084340F000504C
:102020007060306840F080703060FEF773FC0446EA
:102030003068800106D4FEF76DFC011B03200229E5
:10204000F6D900E00020BDE8FC8100BF0038024066
:1020500000700040411E0020B0EB116F01D0012044
:102060007047044AF023516003490B7007219060C8
:102070001160704710E000E023ED00E0704770470A
:102080007047000070B590F83C300222012B30D030
:1020900080F83D20012280F83C20614C02685568A0
:1020A00042F480669368A64202BF25F470054E682C
:1020B0003543B2F1804F0E6825F0700545EA0605FC
:1020C00055600BD0514DAA421CBF514DAA4205D0BC
:1020D000504DAA421CBF504DAA420CD123F08003A0
:1020E0008968194391600022012180F83C2080F822
:1020F0003D10104670BDD04DAA42EFD0474DAA42C8
:1021000018BFA242EAD0EEE760B310B5044690F8DB
:102110003D0028B9002084F83C00204600F024F857
:102120000220211D84F83D00206800F03BFB0120C7
:1021300084F8480084F83E0084F83F0084F84000AA
:1021400084F8410084F8420084F8430084F8440095
:1021500084F8450084F8460084F8470084F83D0080
:10216000002010BD01207047E0B50068B0F1804F3D
:1021700018BF8CBD09480022016841F001010160CF
:102180000021006800F00100019001981C20FEF77A
:1021900021FC1C20BDE88C40FEF70EBC40380240FC
:1021A00090F83D10012920D1022180F83D100168EE
:1021B000C868B1F1804F40F00100C8600BD01348EF
:1021C00081421CBF1248814205D0124881421CBF87
:1021D000114881420BD18868124A02400020062A29
:1021E00018BFB2F5803F0BD170470120704792486D
:1021F0008142F0D009488142EDD009488142EAD0BD
:10220000086840F0010008600020704700040040AA
:1022100000080040000C0040001800400040014051
:102220000004014007000100B0B590F83C200446CE
:102230000220012A20D084F83D00012084F83C00CF
:10224000364D2068024652F8083F2B4013600B6859
:102250002BB1102B03D0202B18BF302B0DD11068C1
:1022600020F07000184340F00700106000200121AA
:1022700084F83C0084F83D10B0BD402B17D0502BA3
:1022800022D0602B2DD0B3F5005F37D0702BEDD16D
:10229000D1E90103C968184340EA0120116821F41B
:1022A0007F4108431060106840F07700DDE74B681D
:1022B000CA68194600F0E2FA226852F8080F40F0A6
:1022C000470020F03000D0E74B68CA68194600F09C
:1022D000D5FA226852F8080F40F0570020F020008D
:1022E000C3E74B68CA68194600F0D9FA226852F869
:1022F000080F40F0670020F01000B6E7D1E90103B5
:10230000C968184340EA0120116821F47F4108435D
:102310001060106840F48040A7E700BF8800FEFF0F
:1023200000284DD0F8B5044690F83D000D4628B978
:10233000002084F83C00204600F046F80220214AA4
:1023400084F83D002068816811408160211D00F003
:1023500029FAD5E9000C2668D5E90223B768384385
:10236000B769316AB060A86942EA00204FF6FC42C2
:1023700090434FF6FF7227EA02021A431043EA69BC
:1023800040EA02202A6940EA02102A6A40EA023042
:10239000B06121F0AA0040EA0C00696940EA01102E
:1023A0003062012084F8480084F83E0084F83F0041
:1023B00084F8440084F8450084F83D000020F8BD0E
:1023C00001207047F8BFFEFF10B586B0044601A893
:1023D0001421FEF75BF821681748814229D117497B
:1023E00000F588304A6942F001024A614A6902F008
:1023F00001020092009A0A6842F010020A6009681D
:1024000001F010010091012105910021CDE9031196
:10241000022102914FF420610191009901A9FEF778
:10242000A7F9192000210022FEF7D4FA1920FEF79F
:10243000C3FA06B010BD00BF0000014030380240B2
:10244000704710B5044600680169890744BFC16838
:102450005FEA817140D40169490744BFC1685FEAFE
:10246000417145D40169090744BFC1685FEA017140
:102470004BD40169C90644BFC1685FEAC16150D449
:102480000169C9071CBFC1685FEAC17156D1016902
:10249000090644BFC1685FEA016157D40169C905F3
:1024A00044BFC1685FEA016158D40169490644BF6D
:1024B000C1685FEA416159D40169890644BFC168B6
:1024C0005FEA816100D410BD6FF0200101612046F8
:1024D000BDE81040FFF7D4BD6FF00201016101219A
:1024E00021778069800749D02046FFF7A9FF4BE09C
:1024F0006FF00401016102212177806910F4407FAF
:1025000046D02046FFF79CFF48E06FF008010161CC
:1025100004212177C069800744D02046FFF790FF4F
:1025200046E06FF01001016108212177C06910F4C5
:10253000407F41D02046FFF783FF43E06FF0010169
:102540000161204600F044F82068A0E76FF08001A8
:1025500001612046FFF793FD20689FE76FF48071CB
:1025600001612046FFF78AFD20689EE76FF0400179
:102570000161204600F02DF820689DE7204600F01C
:1025800025F8204600F023F800202077206862E735
:10259000204600F01BF8204600F019F800202077B4
:1025A00020685FE7204600F011F8204600F00FF8A1
:1025B0000020207720685CE7204600F007F82046DE
:1025C00000F005F800202077206859E77047704731
:1025D00070477047FEE7F0B552000023372400250E
:1025E000AA420ED004EB1076070FB0F1204F38BF8F
:1025F00007F130064E5545F001068B5502350001B6
:10260000EEE7F0BD80B50F480F49002200F0F8FC5E
:1026100008B1FEF79CF80B480C4900F0DDFE08B14C
:10262000FEF795F807480A4900F04EFA08B1FEF7A0
:102630008EF8044800F07CFF18B1BDE88040FEF73A
:1026400086B880BD60140020080000202C00002007
:102650005C010020FEE770470148FEF775BB00BF34
:10266000301700207047704700887047FEF756B952
:1026700070B5B2B06C460025201D8021CDE92A55E9
:10268000CDE92855FDF702FFFFF708F8204802269C
:10269000016841F080510160006800F08050219095
:1026A00021981C48016841F440410160006800F431
:1026B0004040219009203190D82030962F9004205E
:1026C0002E904FF48000CDE92C604FF4A02027908D
:1026D00001202690219826A8FFF71AFBFEF7AAFFF3
:1026E0004FF48050072125904FF4A05024900F20E4
:1026F000CDE92265219021A8FFF73AFA4FF40010A6
:102700001F9500902046FEF7CFFF32B070BD00BF8E
:10271000403802400070004010B50E480F4CD0F811
:10272000801041F47001C0F880100B490A6842F033
:1027300001020A6000228A600B6823400B60084B8C
:102740004B600B6823F480230B60CA604FF000617C
:10275000016010BD08ED00E000380240FFFFF6FE0A
:102760001030002406484FF0FF310068002805486B
:1027700008BF01210268114401600348FFF761BEF0
:10278000240001405C1400200C0200200348016872
:10279000013101600248FFF754BE00BF801B0020DA
:1027A000341B0020B0B50268B0F1804F05D0284B33
:1027B00098421CBF274B984235D122F070024B68DB
:1027C0001A43B0F1804F17D0214B98421CBF214BC8
:1027D000984211D0204B98421CBF224B98420BD0FC
:1027E000214B98421CBF214B984205D01C4B98426C
:1027F0001CBF1A4B984220D122F44072CB681A4376
:102800004D6922F080020B688C682A43026040F414
:102810008062C4628362114B9A4204BF09690163FA
:1028200001214161B0BD0C4B9842C6D00B4B984280
:10283000C3D00B4B9842C0D0C3E70D4B9842DBD0BE
:102840000C4B9842D8D00C4B9842D5D0D8E700BF5B
:102850000004004000080040000C0040000401405B
:102860000000014000180040001C00400020004013
:1028700000400140004801400044014010B5036A97
:10288000046A24F001040462846924F0F00444EA38
:102890000212826123F00A021143016210BD036A31
:1028A00023F010030362836923F4704343EA023286
:1028B000036A826123F0A00242EA011101627047BB
:1028C00010B5D0F8BC2212B38C4601EB810100EBAD
:1028D000810151F8183F63B1D0F8C4E2CCEBCC04CD
:1028E0000EEB8404D4F844E0B3FBFEF404FB1E3387
:1028F00083B1002402F50471C2F81442D0F8C0027A
:102900000369D2F8080262469847204610BD0324A6
:10291000204610BD002400220C600023614600F018
:102920003DFD204610BD0000B0B5D0F8BC5275B1D9
:10293000044600F02DFCC5F80C0205F50371D4F82F
:10294000C002C268D5F8040290470020B0BD032041
:10295000B0BD000000000000B0B58121044600F0C9
:1029600071FB002501212046258700F06BFB8221A9
:102970002046A4F8785100F065FBD4F8BC02E56469
:1029800048B1D4F8C00240688047D4F8BC02FDF7D3
:10299000DEFCC4F8BC520020B0BD00000000000006
:1029A00010B5D0F8C01269B1D0F8BC4294F800025A
:1029B000FF2807D094F801228B6821469847FF2012
:1029C00084F80002002010BD40F2EC010A22C2F29D
:1029D000000102800846704740F264014322C2F2BF
:1029E000000102800846704740F2A8014322C2F26B
:1029F000000102800846704740F2F8014322C2F20B
:102A00000001028008467047F0B581B004464FF4DB
:102A10000770FDF76DFCD8B30546207C4026C4F84E
:102A2000BC52002808BF4FF40076812102222046C4
:102A3000334600F0FBFB01270121022220463346EA
:102A4000278700F0F3FB1020A4F87871A4F84E005B
:102A5000822103220823204600F0E8FBD4F8C002BC
:102A6000A4F84C700068804700200121C5F81402CA
:102A7000C5F81802207CD5F80422002820460CBF97
:102A80004FF40073402300F0DDFB002001B0F0BDE7
:102A90000020C4F8BC02022001B0F0BD000000001C
:102AA00080B5D0F8BC1269B1027C4023002AD1F86D
:102AB00004224FF0010108BF4FF4007300F0C2FB85
:102AC000002080BD032080BD19B1C0F8C0120020D5
:102AD0007047032070470000D0F8BC220020C2F8E5
:102AE0000412704700000000D0F8BC320020C3F888
:102AF0000812C3F81022704770B582B00C460978EE
:102B0000002205468DF8072011F06000ADF8042082
:102B1000D5F8BC6211D0202826D1E288002A29D01D
:102B2000080630D46078314686F80002284686F8D8
:102B3000012200F0B1F800265BE060780B283BD85A
:102B40000026DFE800F00656393939393939393984
:102B50002D3F95F89C0203283AD101A9022228466C
:102B600000F0B6F8002644E02846214600F088F838
:102B700003263EE0D5F8C01260788B68002221461B
:102B80000026984735E0D5F8C01260788B6831464A
:102B90009847E2882846314600F09AF8002628E057
:102BA00095F89C02032819D10DF10701012228464E
:102BB00000F08EF800261CE02846214600F060F860
:102BC000032616E095F89C0203280DD1002610E09C
:102BD0002846214600F054F803260AE028462146FC
:102BE00000F04EF8032604E02846214600F048F89D
:102BF0000326304602B070BD80B5D0F8BC223AB191
:102C0000D2F8141200294FF0010104D0084680BD0B
:102C10000321084680BDC2F814128121D2F8103277
:102C2000D2F80822C36200F0B9FB0021084680BD3B
:102C300080B5D0F8B8220AB152689047002080BD14
:102C400090F89C22013A022A08D84988012918BF25
:102C500070470021C0F8A41200F04AB800F010B884
:102C600080B513460A46002100F0ECFA002080BD32
:102C700080B513460A46002100F090FB002080BD7D
:102C800010B58021044600F06BFB00212046BDE812
:102C9000104000F065BB000080B50323C0F89432FB
:102CA0001346C0F858210A460021C0F85C3100F0F4
:102CB000C9FA002080BD000080B505210022C0F8BF
:102CC00094120021002300F0BDFA002080BD000016
:102CD00080B50223C0F89432134682610A4600216F
:102CE000C36100F05BFB002080BD0000000000001D
:102CF00080B504210022C0F894120021002300F0C6
:102D00004DFB002080BD000010B52B4C0A4603A0EF
:102D1000214600F045F9204610BD00BF4344432042
:102D2000436F6E6669670000122008800048704794
:102D30004801002010B5204C0A4603A0214600F0AF
:102D40002FF9204610BD00BF43444320496E7465EF
:102D500072666163650000000420088000487047C7
:102D60007001002010B5144C0A4603A0214600F063
:102D700017F9204610BD00BF53544D6963726F654B
:102D80006C656374726F6E696373000010B50A4CF2
:102D90000A4603A0214600F003F9204610BD00BFFB
:102DA00053544D3332205669727475616C20436FF1
:102DB0006D506F72740000005C020020B0B51A20E4
:102DC0000880094908688A6880180BD0074D4C684C
:102DD000A91C0822FFF7FFFB05F11201204604227F
:102DE000FFF7F9FB0148B0BD20F4F01F740100208B
:102DF0000C200880004870473C01002000000000C3
:102E0000C988012911D190F89C124A1E022A06D2C3
:102E10000022014641F8082F0122FFF759BF03297C
:102E200003D1011D0122FFF753BFFFF729BF0000A7
:102E3000B0B582B00D4649884FF0FF32002302EB57
:102E4000112204460E2AADF8063000F27980DFE840
:102E500002F008250D7777313B77777777777777AB
:102E60001A00D4F8B412207C0A6812E0C8B205280F
:102E700066D8DFE800F003484E545A60D4F8B40234
:102E800042682AB95CE0D4F8B402C269002A57D07B
:102E9000207C0DF106019047014620E0207C0028AF
:102EA000D4F8B8020CBF816AC16A0DF106008847E8
:102EB000022212E0207C002842D1D4F8B802416BF3
:102EC0000DF106008847E7E7207CC8BBD4F8B802BC
:102ED000016B0DF106008847072201464270EA881F
:102EE00062B1BDF8060058B3904238BF0246204692
:102EF000ADF80620FFF7ECFE02B0B0BD2046FFF7AC
:102F0000F7FE02B0B0BDD4F8B4028268002ABFD187
:102F100016E0D4F8B402C268002AB9D110E0D4F89F
:102F2000B4020269002AB3D10AE0D4F8B4024269BB
:102F3000002AADD104E0D4F8B4028269002AA7D1F6
:102F40002046FFF79DFE02B0B0BD0000000000006B
:102F5000017841B1411E00208A7801300131002AF8
:102F6000FAD1C0B270470020C0B270470000000024
:102F700090F89C22013A022A0ED8C98802290BD166
:102F8000D0F8A41203220029014608BF012241F80B
:102F90000C2F0222FFF79CBEFFF772BE000000005C
:102FA00070B5E8B1054616460C46FFF7D1FF022181
:102FB00001EB4000308020700320607028780028EA
:102FC00008BF70BD691E0222002300BFD6B20232C4
:102FD000A05546F001002354887801310028F5D12E
:102FE00070BD0000032805D8C000034921FA00F095
:102FF000C0B27047032070470003010300000000C7
:10300000A8B1D0F8B83213B10023C0F8B832D0F864
:10301000CC3213B10023C0F8CC32002918BFC0F85D
:10302000B412012180F89C12027000F0B5B80320A0
:10303000704780B5D0F8C402FDF7A4FDBDE880401C
:10304000FFF7D0BF80B5D0F8C402FDF772FDBDE830
:103050008040FFF7C7BF0000B0B5044679B1D4F88F
:10306000B80242694AB194F89C02032805D120466F
:103070009047002808BF0020B0BD0320B0BDD4F8A1
:103080009402022833D1D4E9071081420DD90B1ADA
:10309000204611461A46E361FFF7EAFD00210022AF
:1030A0000023204600F0CEF821E00FD1A169814233
:1030B0000CD3D4F89802814208D200210022204685
:1030C0000025FFF7D5FDC4F89852E7E7D4F8B80219
:1030D000C16829B194F89C02032801D12046884791
:1030E0008021204600F03CF92046FFF7E5FD94F8EA
:1030F000A002012802D1002084F8A0020020B0BD67
:1031000010B5044679B1D4F8B80282694AB194F88E
:103110009C02032805D120469047002808BF0020C4
:1031200010BD032010BDD4F8940203280ED1D4E9B9
:10313000570398420CD9C01A11469842C4F85C0152
:1031400038BF034620461A46FFF78AFD002010BD0F
:10315000D4F8B802016929B194F89C02032801D17E
:10316000204688472046FFF7C3FD002010BD000021
:10317000002070470000000080B5D0F8B82201217F
:1031800080F89C1212B1017952689047002080BDEE
:10319000D0F8C402FDF726BD10B5017849BB164929
:1031A0000122C0F8C4120223C1F800040020C1E9C2
:1031B0000B20C1E90632C1E90800C1E9033006204D
:1031C0004FF0A042C1E900200846FEF7DBF808B145
:1031D000FDF7BDFA084C80212046FDF76BFC204628
:1031E00000214022FDF76AFC204601218022FDF7E4
:1031F00065FC002010BD00BF3017002001F07F02E9
:10320000D0F8C402C2EBC202090600EB820000F152
:103210003E0258BF00F5FF721078704700000000B2
:1032200000207047000000000020704710B51446D1
:10323000D0F8C4021A462346FDF7DDFCBDE8104075
:10324000FFF7D0BE80B5D0F8C402FDF706FDBDE89B
:103250008040FFF7C7BE000070B50125044680F826
:103260009C520020C4F89402D4F8BC126060C4F8E8
:10327000A40229B1D4F8B802002142682046904740
:1032800000210022402320464026FFF7CFFF802167
:10329000002240232046A4F86451C4F86061FFF77F
:1032A000C5FF0020A584266270BD0000000000005C
:1032B00090F89C12042903D190F89D1280F89C127A
:1032C000002070470000000080B590F89C12032990
:1032D00004D1D0F8B812C96901B18847002080BD77
:1032E000024600201174704780B5D0F8C402FEF782
:1032F00058F9BDE88040FFF775BE000000000000EF
:10330000B0B500F2AA250446284600F051F894F81A
:10331000AA02B4F8B032012200F01F01C4F89422CE
:103320000229C4F8983208D001290CD089B9204666
:103330002946BDE8B04000F0FFB820462946BDE868
:10334000B04000F035B920462946BDE8B04000F055
:10335000E3B900F080012046BDE8B040AFF3008043
:1033600080B5D0F8C402FDF799FCBDE88040FFF7B6
:1033700039BE80B5D0F8C402FEF72EF9BDE8804012
:10338000FFF730BE00000000014690F89C020422C6
:1033900081F89D02002081F89C22704780B5D0F80A
:1033A000C402FDF7B2FCBDE88040FFF71BBE000081
:1033B000B0B50C4609780546017060786870A01CAD
:1033C000FFF752F96880201DFFF74EF9A880A01D75
:1033D000FFF74AF9E880B0BD10B582B00022ADF821
:1033E000062059B1C0F8B8120446896A0DF10600EA
:1033F0008847C4F8CC02002002B010BD032002B000
:1034000010BD000000000000B0B58A88044642B933
:10341000C88830B948887F2803D894F89C120329BB
:1034200004D12046BDE8B040FFF72ABC00F07F057C
:103430002046294684F89E52FFF756FF2046FFF7A4
:1034400057FC002D14BF0220012084F89C02B0BD5F
:10345000D0F8B8220AB11268104703207047000064
:10346000B0B54A8840F25825C2F200050446D1B2F0
:103470002A70022903D32046FFF702FC33E094F8B8
:103480009C0203280DD0022826D1B1B320466160EA
:10349000FFF7DEFFB8B305462046FFF7F1FB2846ED
:1034A000B0BD19B36068884227D0C1B22046FFF78B
:1034B000BFFB297820466160FFF7CAFFE8B10546E7
:1034C0002046FFF7DDFB21792046FFF7B1FB022004
:1034D00084F89C022846B0BD2046FFF7D1FB29782E
:1034E0002046FFF7A5FB03252846B0BD022084F83F
:1034F0009C0220466160FFF79BFB2046FFF7F8FB2C
:1035000000252846B0BD2046FFF7F2FB032084F8D3
:103510009C02F5E7000000004988012918BF7047A8
:103520000121C0F8A412FFF7E3BB00000000000077
:10353000FFF71FBF0000000080B50A7812F060029C
:1035400009D0402A18BF202A13D1D0F8B822926897
:10355000BDE8804010474A78092A0AD8DFE802F01F
:10356000050D091109152109191DFFF701FD00209D
:1035700080BDFFF785FB002080BDFFF761FB0020C9
:1035800080BDFFF7C9FF002080BDFFF73DFF002091
:1035900080BDFFF735FC002080BDBDE88040FFF70F
:1035A0005FBFFFF745FC002080BD00000000000069
:1035B000B0B50D460978044611F060010BD04029E2
:1035C00018BF20291AD1D4F8B802294682682046AB
:1035D000BDE8B040104768782979A0B101282FD004
:1035E000032840F0848094F89C0203283BD00228F2
:1035F0007DD141F08000802879D02BE02046FFF774
:103600003FFB0020B0BD94F89C0203283BD0022869
:103610006DD141F08000802869D101F07F0009065A
:1036200000EB80004FF0020204EB800000F1140375
:1036300058BF00F5AA73002018602046194665E0BF
:1036400094F89C0203282AD0022850D141F080002F
:1036500080284CD02046FFF783FE80212046FFF7CC
:103660007FFE0020B0BD688840B941F0800080280E
:1036700004D0E88810B92046FFF772FE2046FFF715
:1036800037FB0020B0BD01F00F0211F0800002EB0B
:10369000820204EB820215D0928CB2B927E06888CE
:1036A0000028AED1480602D02046FFF7C2FC2046D3
:1036B000FFF71EFBD4F8B8022946826820469047DF
:1036C0000020B0BDB2F864218AB101F07F02002869
:1036D00002EB820241F0800004EB820202F5AA753F
:1036E00018BF02F11405802806D100200AE0204608
:1036F000FFF7C6FA0020B0BD2046FFF77FFD002887
:10370000F3D001202860022220462946FFF7E0FA84
:103710000020B0BD00000000B0B50D460978044699
:1037200011F0600118BF40290DD194F89C020138B6
:10373000022803D8A88810F0FE0F0BD02046FFF710
:103740009FFA0020B0BD2029EFD02046FFF798FA5D
:103750000020B0BDD4F8B8022946826820469047C0
:103760000028F6D1E988002918BFB0BD2046FFF730
:10377000BFFA0020B0BD0000B0B50A784C78012532
:1037800002F00F03012C05FA03F318D1D0F81C48FE
:103790002343C0F81C38530100F51060C4582404BA
:1037A00024D41C588D686FF3DF25C97845EA82520E
:1037B000224342EA81410E4A1143195016E0D0F8E3
:1037C0001C48520144EA0343C0F81C3800F530603D
:1037D00083581B040AD413588C686FF3DF24C9780C
:1037E000234343EA8141024B194311500020B0BDED
:1037F00000800010D0F8001940F2FF729143C0F829
:103800000019D0F8041841F48071C0F804180020A1
:1038100070470000B0B504460698049D012817D1F2
:10382000A16B164A21F480310D98A1630128E1684B
:1038300001EA0201E160E16821F44011E16003D195
:10384000E06840F48010E060204600F019F80AE0DB
:10385000E06840F04000E060204600F011F8A16B05
:1038600041F48031A163012D07D1A16841F0060127
:10387000A160A16841F02001A160B0BDBFFFBDFF04
:103880000A490A46013A0ED00369B3F1FF3FF9DC59
:10389000026942F001020261013904D00269D207D3
:1038A000FAD1002070470320704700BF410D03008C
:1038B00010B50B784A78214900EB4314012A15D141
:1038C00004F51062D4F80049B4F1FF3F07DC146836
:1038D00044F000641460146844F08044146003F001
:1038E0000F03012404FA03F39BB216E004F53062DF
:1038F000D4F8004BB4F1FF3F07DC146844F00064D7
:103900001460146844F08044146003F00F034FF413
:10391000803404FA03F301F17071D0F83C489C4301
:10392000C0F83C48D0F81C4824EA0303C0F81C380F
:10393000106808401060002010BD00BF007833EC14
:10394000D0F8001E21F00301C0F8001ED0F80418C2
:1039500021F00201C0F8041800207047D0F8001EC2
:1039600021F00301C0F8001ED0F8041841F0020154
:10397000C0F80418002070472DE9F84F0D46804626
:10398000DDF844A00C98DDF8289041210022502950
:1039900003D048F821200131F9E7BAF1000F06D031
:1039A000D8F8381041F40011C8F8381017E0D8F8EA
:1039B000041841F00201C8F80418D8F8381021F4AE
:1039C0000011C8F83810D8F8001041F04001C8F8CC
:1039D0000010D8F8001041F08001C8F80010002154
:1039E00008F5006BC8F8001E0328DBF80010CBF8C0
:1039F000001018BF012806D1DBF80000002B18BF0B
:103A000040F0010003E0DBF8000040F00300CBF8D9
:103A100000004046102100F00BFA0646404600F038
:103A2000FBF90021304308F510624FF67F33002682
:103A3000CBF81010CBF81410CBF81C10B5420ED0F8
:103A40004FF09047002E08BF4FF00067146807EA58
:103A5000E47401361460116193602032EEE708F5DA
:103A6000306100224FF67F330026002818BF012066
:103A7000B5420ED04FF09044002E08BF4FF00064C6
:103A80000F6804EAE77401360C600A618B6020312C
:103A9000EEE7DBF81010B9F1000F21F48071CBF8DC
:103AA00010104FF00001C8F818106FF08041C8F8EE
:103AB000141005D1D8F8181041F01001C8F81810EA
:103AC000D8F818100B4A1143C8F818100D9929B1ED
:103AD000D8F8181041F00801C8F81810BAF1010F11
:103AE00005D1D8F81810044A1143C8F81810BDE8D9
:103AF000F88F00BF00383C8004000040816821F04E
:103B00000101816000207047F0B54B7891F800E02A
:103B1000012B1DD100EB4E13324FD3F810694D69C4
:103B200003F51063304CBDB326401E611E693E4054
:103B30001E618E68B54201D935464E611E6946F454
:103B400000261E6107F100562E401F693E432EE0FD
:103B500000EB4E10234CD0F8103B6FF31203C0F86B
:103B6000103BD0F8103B6FF3DC43C0F8103B00F57E
:103B700030634D69886805B148611D6904F10054DE
:103B800045F4002520401D61012A1C6940EA04001B
:103B9000186112D1C8680EE006EA07051D611D69AB
:103BA00045F400251D611D6905EA04060025012A6A
:103BB0001E6109D1086900B158614FF004411868CD
:103BC000084318600020F0BD1968002D41F0044141
:103BD0001960F7D00EF00F01012202FA01F100F690
:103BE0003403ECE7FFFF07E00000F8FF10B5036CBB
:103BF000134CA34203D3D0F8003B002B1ED4002368
:103C00000129C0F8103BD0F8103B43F40023C0F862
:103C1000103BD0F8103B43F01803C0F8103BD0F82D
:103C2000103B43F0C043C0F8103B07D1C0F8142B41
:103C3000D0F8001B41F08021C0F8001B002010BD0F
:103C40000B30544F0A784B785201012B02D100F50A
:103C5000106001E000F53060835823F400138350B6
:103C6000C97801F0FE01022903D1115841F08051B9
:103C70001150002070470A78497800EB4210012962
:103C800004D1D0F8001900F5106003E0D0F8001B53
:103C900000F530602AB1002903D4016821F0804189
:103CA0000160016841F400110160002070470000CC
:103CB000F8B54B780C78012B2BD100EB4413D3F8DB
:103CC00010694D6903F51063002D44D06FF312069F
:103CD0001E611E696FF3DC461E618E68AF19013FDD
:103CE000B7FBF6F6484F07EAC6461F693E431E611A
:103CF0002E466FF3DF461F693E431E61CE78012ECC
:103D000034D11E6926F0C0461E611E6946F0005679
:103D10002BE000EB4413D3F8104B6FF31204C3F8FD
:103D2000104BD3F8104B6FF3DC44C3F8104B03F582
:103D300030634D698C68B5B32544334E013D1F692E
:103D4000B5FBF4F506EAC546ADB26C433E431E61D1
:103D50006FF3DF442EE06FF3DC461E611E6946F40C
:103D600000261E611E696FF312061E61012A01D131
:103D70000A6926E01E6846F004461E60CE78012ED1
:103D800035D1D0F80868F6054FF0805658BF4FF08F
:103D900000561F683E431E60ABB2C96800922246BF
:103DA00000F040F921E06FF3DF441D692C431C61F2
:103DB0004FF400241D69012A44EA05041C6102D164
:103DC000CA6802B15A61C97801290AD1D0F8080835
:103DD000C0054FF0805058BF4FF00050196808439D
:103DE0001860186840F0044018600020F8BD002DED
:103DF000FBD004F00F01012202FA01F1D0F83428BF
:103E00001143C0F83418F0E70000F81F816841F052
:103E10000101816000207047102101610B490139C7
:103E200004D00269D206FAD40020704703207047FC
:103E30008901203101610549013904D002699206E6
:103E4000FAD4002070470320704700BF410D0300E3
:103E5000D0F8080810F0060006D040F004010F204A
:103E6000062908BF0220704700207047406900F013
:103E700001007047D0F81818D0F81C08084080B22C
:103E80007047D0F81818D0F81C080840000C70478C
:103E900010B5D0F8102801F00F03D0F8344800EB2B
:103EA000411024FA03F3D0F80809DB01DBB21A430E
:103EB000104010BD00EB4111D1F8081BD0F81408D8
:103EC00008407047416980690840704710B5033267
:103ED0004FF48053920822B1C458013A41F8044B80
:103EE000F9E7084610BD80B5C268012922F0C0423A
:103EF000C26003D061B94FF0804101E04FF0005142
:103F0000C2681143C1603220FCF722FC002080BD52
:103F1000012080BDD0F8002801F07F0122F4FE626C
:103F2000C0F80028D0F8002842EA0111C0F80018B3
:103F300000207047022A34D1284A294B0A449A4269
:103F400002D24FF470512EE0264A274B0A449A427F
:103F500002D24FF4605126E0244A254B0A449A428B
:103F600002D24FF450511EE0224A234B0A449A4297
:103F700002D24FF4405116E0204A214B0A449A42A3
:103F800002D24FF430510EE01E4A1F4B0A449A42AF
:103F900002D24FF4205106E01C4A1D4B0A449A42BB
:103FA0000AD24FF41051C26822F47052C260C26843
:103FB0001143C16000207047164A174B0A449A42C9
:103FC00002D24FF40051EEE7144A154B0A444FF465
:103FD000C0519A4238BF4FF4E051E4E7405327FF05
:103FE00000350C00401E1BFF40420F0000DC0BFFA1
:103FF000804F1200808CF9FE20D6130060B6E5FEDB
:1040000060E3160000D3CEFE40771B00C05BB3FE1A
:10401000C091210000CA91FE20753800E05459FE7D
:10402000E09C410010B5029C54B90333120300F523
:1040300080509B0823B151F8044B013B1450F9E721
:10404000002010BDFEE7000010B500F00F03064C85
:104050002344044AB0F1FF3FC8BF83180801187019
:1040600010BD00BF00E400E014ED00E00348044987
:1040700000680968C0EB0040084470475C140020E9
:10408000240001408CB0FCF753FCFEF7F1FA4FF02E
:1040900000099B48CDE9039901689A4D41F004015C
:1040A00005F5823401600022016801F004010991E4
:1040B0000999016841F080010160016801F0800107
:1040C00009910999016841F001010160016801F05D
:1040D000010109910999016841F01001016001682D
:1040E00001F0100109910999016841F00201016094
:1040F000016801F0020109910999016841F0080184
:104100000160016801F0080109910999016841F015
:10411000400101604FF48141006800F040000990C7
:1041200009982046FCF7F0FB05F58C3850214046F5
:104130000022FCF7E9FB7448CDF8089001904FF499
:10414000005005F584356E460090704F2846314684
:10415000B8470B204FF0020B04900320CDE90290EA
:104160003220CDF804B00090284631464FF00B0ABB
:10417000B84703258620CDF810A031460395CDE938
:1041800001B900905F4800F58030B8474FF4005007
:104190003146CDE9035ACDE901B900902046B84730
:1041A0004FF0010A4FF48140CDE90299CDF804A007
:1041B000314600902046B84707203146CDE90350EC
:1041C0004FF440700325CDE901B900904D4800F54A
:1041D0008630B8475020CDF80C90CDE901A9009069
:1041E00040463146B84780203146CDE901990090DC
:1041F0004046B8470B203146CDE903504FF42050DC
:10420000CDE901B900904046B847414D3D482F46A1
:10421000694647F81C0F4FF6FF70CDE90799CDE9C5
:10422000059AC7E90199C7E903090320CDE9039974
:10423000CDE9019A00903846C7E90599FEF770F874
:1042400009A93846CDF82C90CDE90999FDF71AFF58
:10425000304E40F2E730D7214FF08042C6F8189038
:10426000C6E90021C6E902903046C6F81090CDF8A4
:104270000C90CDE90199CDF82890FDF745FF4FF45A
:104280008050694600903046FDF7CEFF09A93046C0
:10429000CDF82C90CDF82490FDF7F4FEFEF7B2F99E
:1042A0003846FDF77DFF3046FDF77AFF1A4E686805
:1042B0000130A860FFF7DAFE2860A9686973294613
:1042C00001F80C0F08461021FCF72AFA204680213D
:1042D0000022B04720464FF480410122B047C82059
:1042E000FCF736FA204680210122B04720464FF4E1
:1042F00080410022B047C820FCF72AFAD7E700BF68
:104300003038024000000140000011107107000821
:10431000F0010020341B002009090008F1EE100A0A
:104320004FF6FF71C0F2C03120EA010040F040704A
:10433000E1EE100A704700000000000000000102DA
:104340000304060708090000684300080000002075
:104350009001000004020008384400089001002089
:10436000F82D0000600200083201321013292D1BC5
:104370000859041A65041A8D041ABD041A09041A8E
:1043800035041AF104111324F41B092A2412291BE1
:1043900008F908411AA10C13C1281B082908C11AE1
:1043A000E9102AD92819041AC9041409024313026E
:1043B0000125C03209041B01020B1305241610014C
:1043C000052401100901042402020524061701072F
:1043D00005820308151009040133020A2E0705019E
:1043E0000240072A810711093744113A024419078C
:1043F000112B0A0606112A40F42B0907500A3B0428
:10440000941C050F0C242B1002551B12014512029F
:104410001E4083044057591B02036513E1061B0825
:10442000DB041AD7041305071B081D04071A04032D
:0844300009041A03000000005A
:04000005080001C925
:00000001FF
